:100000000C948000189500001895000018950000C9
:10001000189500001895000018950000189500002C
:10002000189500001895000018950000189500001C
:10003000189500001895000018950000189500000C
:1000400018950000189500001895000018950000FC
:1000500018950000189500001895000018950000EC
:1000600018950000189500001895000018950000DC
:1000700018950000189500001895000018950000CC
:1000800018950000189500001895000018950000BC
:1000900018950000189500001895000018950000AC
:1000A000189500001895000018950000189500009C
:1000B0000C94760118950000189500001895000022
:1000C000189500001895000018950000189500007C
:1000D000189500001895000018950000189500006C
:1000E000189500001895000018950000189500005C
:1000F000189500001895000018950000189500004C
:100100008FEF8DBFC8EDE0EA4E2E8FE78EBFDFE7A1
:10011000FFE75F2E0090400000924000EEEFFFE10D
:10012000A0E0B0E688278D933197E9F70E94FF01A0
:10013000662476E07093000A70E07093010A70E321
:1001400070930A0A71E87093000670E070930106DC
:1001500070E67093020674E47093030670E0709387
:10016000040670E07093050670E07093080670E076
:1001700070930A0670E070930B0670E070930C06A3
:1001800071E070930E0680E090E0809312069093E9
:10019000130680E090E080931406909315068FEF8D
:1001A00088B988E080934B048FEF80934C0480E003
:1001B00084B98BE080932B048FEF80932C047BE039
:1001C000709330047BE0709331047BE070933204D1
:1001D0007BE0709333047BE07093340478E0709399
:1001E00030048FEF80BB88E080938B048FEF809387
:1001F0008C0478948CE00E944D020E94E7010E94DA
:10020000E101E0E9F6E00E94DA010E94E501E4EA9A
:10021000F6E00E94DA01E0E0F6E000E0A7E1B0E6F7
:100220000E94830280E090E0ACE0B0E68D939C9366
:10023000A7E1B0E68D919C91ACE0B0E68D939C93E4
:10024000ACE0B0E60D911C9144E050E00E949602B3
:10025000ACE0B0E60D931C938FE71EE10E94F6011F
:10026000EEE0F0E6A8E8BFE714E0222703E032E082
:100270000E94A4020E94D2018FEB1EE10E94F601AF
:10028000ECE0F0E6AEE0B0E60E94F002EEE0F0E670
:10029000A8E8BFE71127222704E033E00E94A40268
:1002A0000E94D20181E090E00E947802A5E1B0E6D0
:1002B0000D911C910F5F1F4FA5E1B0E60D931C93AC
:1002C0000C940B01F894FFCF099A00000000000085
:1002D0000000000000000A9A00000000000000007A
:1002E0000000000009980A98089508950F921F923F
:1002F0002F923F924F925F927F92AF92BF920F9355
:100300001F932F933F934F935F936F937F938F939D
:100310009F93AF93BF93CF93DF93EF93FF939FB7D9
:100320009F937AEA79B908959F919FBFFF91EF91CA
:10033000DF91CF91BF91AF919F918F917F916F91FD
:100340005F914F913F912F911F910F91BF90AF906F
:100350007F905F904F903F902F901F900F90189537
:1003600005D00E94960200FC0CD008950024E89469
:1003700057FF02C009D0689400F80BD010F8012490
:10038000089502D009D00895509540954F5F5F4F72
:100390000895E89417FF0895009510950F5F1F4F7B
:1003A00068940895A8E8BFE78D91882311F06FD075
:1003B000FBCF08950E94A002802D11F068D0FACFE3
:1003C000089582E06AD018D014C080EC66C081E045
:1003D00064D012D080E861C08FE7213039F08FEB14
:1003E000223021F08FE8233009F08FEC810F0C943C
:1003F0004D0280E852D0089583E0992779C08AEFB2
:1004000090E00E947802A39AA29AA19AA09AA49A34
:10041000A69AAE9885E090E00E947802AC98AB98DE
:10042000AA98A99AA89AAC9AEF93FF93E0EFF1E00B
:100430000E946E02FF91EF91AC9857D0AC9AEF9367
:10044000FF93E0EFF1E00E946E02FF91EF91AC9814
:100450004CD0AC9AEF93FF93E0EFF1E00E946E0274
:10046000FF91EF91AC9841D0A898AC9AEF93FF938D
:10047000E0EFF1E00E946E02FF91EF91AC9835D071
:1004800088E20BD08EE009D086E007D00895AE9ABE
:10049000829505D004D029D00895AE98F9CF8595DE
:1004A00010F4A89A01C0A898859510F4A99A01C0E3
:1004B000A998859510F4AA9A01C0AA98859510F478
:1004C000AB9A01C0AB98AC9AEF93FF93E0EFF1E0E9
:1004D0000E946E02FF91EF91AC9808950895689480
:1004E00062F80895E89462F8089581E090E000C011
:1004F000EF93FF93EE27E82BE92B11F0E8E8F3E107
:10050000FF91EF910895008781E082878285817055
:10051000E9F70234008911890D931C930895019124
:100520001191219130810895015010400F92B8012E
:10053000469F8001479F100D569F100D0F90089504
:10054000C8953196002008952E2E3F2E992781912F
:100550008D3209F093958823D1F79A95E22DF32DEA
:10056000112361F0091718F011F0101B01C0191BBD
:1005700028F021F080E28D931A95E9F780818D3281
:1005800019F48D93319604C0222311F08BE28D93E0
:10059000091738F031F0091B21F080E38D930A959B
:1005A000E9F781918D938823E1F7332351F0EA2F06
:1005B000FB2F319633958E9182933A95E1F78EE237
:1005C0008C930895000F111F221F331F089500956B
:1005D0001095209530950F5F1F4F2F4F3F4F089577
:1005E000019110810FC00E948F020EC00E948F02E5
:1005F00010C00191108117FF05C03FEF2FEF04C01D
:10060000008111272227332737FF03C0E0DF8DE267
:100610008D93E2E0F0E65F01882780838183828307
:100620008383848340E2F50155E093E38081890F61
:1006300087FD9F7083FD907F891B81935A95A9F751
:10064000C1DF55E0F5018081881F81935A95D9F764
:100650004A9549F7E894F50131960F013496829155
:100660000AD0E015F105D8F726F06894F5018081ED
:1006700006D04D930895982F829501D0892F8F70C1
:10068000805D26F0803309F4089568948D93089571
:100690004354393038342043757276652054726182
:1006A0006365720056302E30202D414C5048412D4C
:1006B000202E20496E697469616C697A696E6700E1
:00000001FF
