:100000000C945000189500001895000018950000F9
:10001000189500001895000018950000189500002C
:10002000189500000C9404010C940401189500002C
:10003000189500001895000018950000189500000C
:1000400018950000189500001895000018950000FC
:1000500018950000189500001895000018950000EC
:1000600018950000189500001895000018950000DC
:1000700018950000189500001895000018950000CC
:1000800018950000189500001895000018950000BC
:1000900018950000189500001895000018950000AC
:1000A0008FEF8DBFC8EDE0EA4E2E8FE38EBFDFE30A
:1000B000FFE35F2E0090400000924000EEEFF7E17A
:1000C000A0E0B8E288278D933197E9F70E94650197
:1000D000662476E07093000A70E07093010A70E382
:1000E00070930A0A8FEF88B9A0E5B4E088E00E9417
:1000F000F40180E084B9A0E3B4E088E00E94F40158
:100100008FEF80BBA0E9B4E088E00E94F4018CE0AE
:100110000E94B3010E944D010E94470100E010E4DB
:1001200021E8E0E0F6E020830183128380E28093FF
:10013000A0008CE00E94B3010E944D010E94470183
:10014000ECE6F5E00E9440010E944B01E0E8F5E09A
:100150000E944001E0E0F6E000E0A7E1B8E20E9482
:10016000E90180E090E0ACE0B8E28D939C93A7E1D8
:10017000B8E28D919C91ACE0B8E28D939C93ACE099
:10018000B8E20D911C9144E050E00E940402ACE002
:10019000B8E20D931C938FE71EE10E945C01EEE034
:1001A000F8E2A8E8BFE314E0222703E032E00E946F
:1001B00012020E9438018FEB1EE10E945C01ECE00C
:1001C000F8E2AEE0B8E20E945E02EEE0F8E2A8E8F3
:1001D000BFE31127222704E033E00E9412020E94AD
:1001E000380181E090E00E94DE01A5E1B8E20D91C6
:1001F0001C910F5F1F4FA5E1B8E20D931C930C9467
:10020000AA00FFFFF894FFCF099A00000000000049
:100210000000000000000A9A00000000000000003A
:100220000000000009980A981895089505D00E94CA
:10023000040200FC0CD008950024E89457FF02C08B
:1002400009D0689400F80BD010F80124089502D06A
:1002500009D00895509540954F5F5F4F0895E894F9
:1002600017FF0895009510950F5F1F4F689408952C
:10027000A8E8BFE38D91882311F06FD0FBCF0895DC
:100280000E940E02802D11F068D0FACF089582E00E
:100290006AD018D014C080EC66C081E064D012D05F
:1002A00080E861C08FE7213039F08FEB223021F0F8
:1002B0008FE8233009F08FEC810F0C94B30180E8B4
:1002C00052D0089583E0992779C08AEF90E00E9488
:1002D000DE01A39AA29AA19AA09AA49AA69AAE988D
:1002E00085E090E00E94DE01AC98AB98AA98A99AAC
:1002F000A89AAC9AEF93FF93E0EFF1E00E94D4014B
:10030000FF91EF91AC9857D0AC9AEF93FF93E0EF49
:10031000F1E00E94D401FF91EF91AC984CD0AC9ADF
:10032000EF93FF93E0EFF1E00E94D401FF91EF9192
:10033000AC9841D0A898AC9AEF93FF93E0EFF1E02E
:100340000E94D401FF91EF91AC9835D088E20BD098
:100350008EE009D086E007D00895AE9A829505D048
:1003600004D029D00895AE98F9CF859510F4A89AB5
:1003700001C0A898859510F4A99A01C0A9988595FF
:1003800010F4AA9A01C0AA98859510F4AB9A01C0FE
:10039000AB98AC9AEF93FF93E0EFF1E00E94D401A9
:1003A000FF91EF91AC9808950895689462F80895CC
:1003B000E89462F8089581E090E000C0EF93FF9325
:1003C000EE27E82BE92B11F0E8E8F3E1FF91EF913C
:1003D0000895068381E0808780858170E9F7008930
:1003E00011890D931C9308958D938D938D938D9307
:1003F0008D938D938D938D930895019111912191FA
:1004000030810895015010400F92B801469F80013D
:10041000479F100D569F100D0F900895C895319667
:10042000002008952E2E3F2E992781918D3209F0BC
:1004300093958823D1F79A95E22DF32D112361F03E
:10044000091718F011F0101B01C0191B28F021F03A
:1004500080E28D931A95E9F780818D3219F48D939E
:10046000319604C0222311F08BE28D93091738F0E6
:1004700031F0091B21F080E38D930A95E9F7819112
:100480008D938823E1F7332351F0EA2FFB2F319628
:1004900033958E9182933A95E1F78EE28C9308958D
:1004A000000F111F221F331F0895009510952095EE
:1004B00030950F5F1F4F2F4F3F4F089501911081CF
:1004C0000FC00E94FD010EC00E94FD0110C00191ED
:1004D000108117FF05C03FEF2FEF04C000811127E7
:1004E0002227332737FF03C0E0DF8DE28D93E2E060
:1004F000F8E25F01882780838183828383838483FA
:1005000040E2F50155E093E38081890F87FD9F70FC
:1005100083FD907F891B81935A95A9F7C1DF55E030
:10052000F5018081881F81935A95D9F74A9549F73B
:10053000E894F50131960F01349682910AD0E015C6
:10054000F105D8F726F06894F501808106D04D9327
:100550000895982F829501D0892F8F70805D26F0A5
:10056000803309F4089568948D9308954354393085
:100570003834204375727665205472616365720069
:1005800056302E30202D414C5048412D202E2049F0
:0C0590006E697469616C697A696E6700BD
:00000001FF
