:1000000009C0189531C01895189518951895189528
:10001000189518958FE98DBFCCE8E0E84E2EDD27C6
:100020005D2EA89584B7082E882784BF88E199277C
:1000300081BD91BDEEE3F0E0A0E6B0E088278D93AE
:100040003197E9F76624BB9ABC9AB898C09AA89AE7
:100050007BB770627BBF789488B398E0892788BBB0
:10006000FBCFFFFFF894FFCF0F921F922F923F928A
:100070004F925F927F92AF92BF920F931F932F93F5
:100080003F934F935F936F937F938F939F93AF9320
:10009000BF93CF93DF93EF93FF939FB79F93B09955
:1000A00006C0B09904C088B390E1892788BB089541
:1000B0009F919FBFFF91EF91DF91CF91BF91AF9142
:1000C0009F918F917F916F915F914F913F912F9170
:1000D0001F910F91BF90AF907F905F904F903F9096
:1000E0002F901F900F9018953197F1F7089568940D
:0A00F00062F80895E89462F808959C
:00000001FF
