:100000000C948000189500001895000018950000C9
:10001000189500001895000018950000189500002C
:10002000189500001895000018950000189500001C
:10003000189500001895000018950000189500000C
:1000400018950000189500001895000018950000FC
:1000500018950000189500001895000018950000EC
:1000600018950000189500001895000018950000DC
:1000700018950000189500001895000018950000CC
:1000800018950000189500001895000018950000BC
:1000900018950000189500001895000018950000AC
:1000A000189500001895000018950000189500009C
:1000B0000C94C200189500001895000018950000D7
:1000C000189500001895000018950000189500007C
:1000D000189500001895000018950000189500006C
:1000E000189500001895000018950000189500005C
:1000F000189500001895000018950000189500004C
:100100008FEF8DBFC8EDE0EA4E2E8FE78EBFDFE7A1
:10011000FFE75F2E0090400000924000EEEFFFE10D
:10012000A0E0B0E688278D933197E9F766248FEF3A
:1001300088B980E084B98FEF80B98BE080932B047D
:100140008FEF80932C047894A0E0B0E60D911C9181
:100150000F5F1F4FA0E0B0E60D931C93A0E0B0E648
:100160008C9189B9A0E0B0E60D911C91003050E06F
:10017000150711F00C94BE0070E071B90C94A40046
:10018000F894FFCF0F921F922F923F924F925F925F
:100190007F92AF92BF920F931F932F933F934F93F2
:1001A0005F936F937F938F939F93AF93BF93CF93FF
:1001B000DF93EF93FF939FB79F937AEA71B9089506
:1001C0009F919FBFFF91EF91DF91CF91BF91AF9131
:1001D0009F918F917F916F915F914F913F912F915F
:1001E0001F910F91BF90AF907F905F904F903F9085
:1001F0002F901F900F9018953197F1F708956894FC
:0A02000062F80895E89462F808958A
:00000001FF
